{"abi":[{"type":"constructor","inputs":[{"name":"merkleProofs","type":"bytes32","internalType":"bytes32"},{"name":"token","type":"address","internalType":"contract IERC20"}],"stateMutability":"nonpayable"},{"type":"function","name":"claim","inputs":[{"name":"account","type":"address","internalType":"address"},{"name":"amount","type":"uint256","internalType":"uint256"},{"name":"merkleProof","type":"bytes32[]","internalType":"bytes32[]"},{"name":"v","type":"uint8","internalType":"uint8"},{"name":"r","type":"bytes32","internalType":"bytes32"},{"name":"s","type":"bytes32","internalType":"bytes32"}],"outputs":[],"stateMutability":"nonpayable"},{"type":"function","name":"eip712Domain","inputs":[],"outputs":[{"name":"fields","type":"bytes1","internalType":"bytes1"},{"name":"name","type":"string","internalType":"string"},{"name":"version","type":"string","internalType":"string"},{"name":"chainId","type":"uint256","internalType":"uint256"},{"name":"verifyingContract","type":"address","internalType":"address"},{"name":"salt","type":"bytes32","internalType":"bytes32"},{"name":"extensions","type":"uint256[]","internalType":"uint256[]"}],"stateMutability":"view"},{"type":"function","name":"getAirdropToken","inputs":[],"outputs":[{"name":"","type":"address","internalType":"contract IERC20"}],"stateMutability":"view"},{"type":"function","name":"getMerkleRoot","inputs":[],"outputs":[{"name":"","type":"bytes32","internalType":"bytes32"}],"stateMutability":"view"},{"type":"function","name":"getMessage","inputs":[{"name":"account","type":"address","internalType":"address"},{"name":"amount","type":"uint256","internalType":"uint256"}],"outputs":[{"name":"","type":"bytes32","internalType":"bytes32"}],"stateMutability":"view"},{"type":"event","name":"Claim","inputs":[{"name":"account","type":"address","indexed":true,"internalType":"address"},{"name":"amount","type":"uint256","indexed":false,"internalType":"uint256"}],"anonymous":false},{"type":"event","name":"EIP712DomainChanged","inputs":[],"anonymous":false},{"type":"error","name":"AddressEmptyCode","inputs":[{"name":"target","type":"address","internalType":"address"}]},{"type":"error","name":"AddressInsufficientBalance","inputs":[{"name":"account","type":"address","internalType":"address"}]},{"type":"error","name":"FailedInnerCall","inputs":[]},{"type":"error","name":"InvalidShortString","inputs":[]},{"type":"error","name":"MerkleAirdrop__AlreadyClaimed","inputs":[]},{"type":"error","name":"MerkleAirdrop__InvalidProof","inputs":[]},{"type":"error","name":"MerkleAirdrop__InvalidSignature","inputs":[]},{"type":"error","name":"SafeERC20FailedOperation","inputs":[{"name":"token","type":"address","internalType":"address"}]},{"type":"error","name":"StringTooLong","inputs":[{"name":"str","type":"string","internalType":"string"}]}],"bytecode":{"object":"0x6101a06040523480156200001257600080fd5b5060405162001122380380620011228339810160408190526200003591620001c6565b604080518082018252600d81526c04d65726b6c6541697264726f7609c1b602080830191909152825180840190935260018352603160f81b90830152906200007f82600062000141565b610120526200009081600162000141565b61014052815160208084019190912060e052815190820120610100524660a0526200011e60e05161010051604080517f8b73c3c69bb8fe3d512ecc4cf759cc79239f7b179b0ffacaa9a75d522b39400f60208201529081019290925260608201524660808201523060a082015260009060c00160405160208183030381529060405280519060200120905090565b60805250503060c052610160919091526001600160a01b031661018052620003ee565b6000602083511015620001615762000159836200017a565b905062000174565b816200016e8482620002ac565b5060ff90505b92915050565b600080829050601f81511115620001b1578260405163305a27a960e01b8152600401620001a8919062000378565b60405180910390fd5b8051620001be82620003c9565b179392505050565b60008060408385031215620001da57600080fd5b825160208401519092506001600160a01b0381168114620001fa57600080fd5b809150509250929050565b634e487b7160e01b600052604160045260246000fd5b600181811c908216806200023057607f821691505b6020821081036200025157634e487b7160e01b600052602260045260246000fd5b50919050565b601f821115620002a7576000816000526020600020601f850160051c81016020861015620002825750805b601f850160051c820191505b81811015620002a3578281556001016200028e565b5050505b505050565b81516001600160401b03811115620002c857620002c862000205565b620002e081620002d984546200021b565b8462000257565b602080601f831160018114620003185760008415620002ff5750858301515b600019600386901b1c1916600185901b178555620002a3565b600085815260208120601f198616915b82811015620003495788860151825594840194600190910190840162000328565b5085821015620003685787850151600019600388901b60f8161c191681555b5050505050600190811b01905550565b60006020808352835180602085015260005b81811015620003a8578581018301518582016040015282016200038a565b506000604082860101526040601f19601f8301168501019250505092915050565b80516020808301519190811015620002515760001960209190910360031b1b16919050565b60805160a05160c05160e0516101005161012051610140516101605161018051610cb76200046b6000396000818160b301526102b301526000818160730152610201015260006104c3015260006104910152600061073d01526000610715015260006106700152600061069a015260006106c40152610cb76000f3fe608060405234801561001057600080fd5b50600436106100575760003560e01c80634497a1691461005c5780634959065714610071578063548efba2146100a6578063570c537e146100dd57806384b0196e146100f0575b600080fd5b61006f61006a366004610a2c565b61010b565b005b7f00000000000000000000000000000000000000000000000000000000000000005b6040519081526020015b60405180910390f35b6040516001600160a01b037f000000000000000000000000000000000000000000000000000000000000000016815260200161009d565b6100936100eb366004610ae0565b6102e4565b6100f861037c565b60405161009d9796959493929190610b5a565b6001600160a01b03871660009081526003602052604090205460ff161561014557604051631ac2170b60e01b815260040160405180910390fd5b61015b8761015389896102e4565b8585856103c2565b6101785760405163ab8b856560e01b815260040160405180910390fd5b604080516001600160a01b038916602082015290810187905260009060600160408051601f198184030181528282528051602091820120908301520160405160208183030381529060405280519060200120905061022c8686808060200260200160405190810160405280939291908181526020018383602002808284376000920191909152507f000000000000000000000000000000000000000000000000000000000000000092508591506103ee9050565b610249576040516330f109b760e21b815260040160405180910390fd5b6001600160a01b03881660008181526003602052604090819020805460ff19166001179055517f47cee97cb7acd717b3c0aa1435d004cd5b3c8c57d70dbceb4e4458bbd60e39d49061029e908a815260200190565b60405180910390a26102da6001600160a01b037f0000000000000000000000000000000000000000000000000000000000000000168989610406565b5050505050505050565b60006103737faa726e564e52b64144617a6a46c42e8b763d4d224ca1a3e13c1491f8a4763a236040518060400160405280866001600160a01b031681526020018581525060405160200161035892919091825280516001600160a01b03166020808401919091520151604082015260600190565b6040516020818303038152906040528051906020012061045d565b90505b92915050565b60006060806000806000606061039061048a565b6103986104bc565b60408051600080825260208201909252600f60f81b9b939a50919850469750309650945092509050565b6000806103d1868686866104e9565b50506001600160a01b039081169088161491505095945050505050565b6000826103fb85846105b8565b1490505b9392505050565b604080516001600160a01b038416602482015260448082018490528251808303909101815260649091019091526020810180516001600160e01b031663a9059cbb60e01b1790526104589084906105fb565b505050565b600061037661046a610663565b8360405161190160f01b8152600281019290925260228201526042902090565b60606104b77f0000000000000000000000000000000000000000000000000000000000000000600061078e565b905090565b60606104b77f0000000000000000000000000000000000000000000000000000000000000000600161078e565b600080807f7fffffffffffffffffffffffffffffff5d576e7357a4501ddfe92f46681b20a084111561052457506000915060039050826105ae565b604080516000808252602082018084528a905260ff891692820192909252606081018790526080810186905260019060a0016020604051602081039080840390855afa158015610578573d6000803e3d6000fd5b5050604051601f1901519150506001600160a01b0381166105a4575060009250600191508290506105ae565b9250600091508190505b9450945094915050565b600081815b84518110156105f3576105e9828683815181106105dc576105dc610bf3565b6020026020010151610839565b91506001016105bd565b509392505050565b60006106106001600160a01b03841683610868565b905080516000141580156106355750808060200190518101906106339190610c09565b155b1561045857604051635274afe760e01b81526001600160a01b03841660048201526024015b60405180910390fd5b6000306001600160a01b037f0000000000000000000000000000000000000000000000000000000000000000161480156106bc57507f000000000000000000000000000000000000000000000000000000000000000046145b156106e657507f000000000000000000000000000000000000000000000000000000000000000090565b6104b7604080517f8b73c3c69bb8fe3d512ecc4cf759cc79239f7b179b0ffacaa9a75d522b39400f60208201527f0000000000000000000000000000000000000000000000000000000000000000918101919091527f000000000000000000000000000000000000000000000000000000000000000060608201524660808201523060a082015260009060c00160405160208183030381529060405280519060200120905090565b606060ff83146107a8576107a183610876565b9050610376565b8180546107b490610c2b565b80601f01602080910402602001604051908101604052809291908181526020018280546107e090610c2b565b801561082d5780601f106108025761010080835404028352916020019161082d565b820191906000526020600020905b81548152906001019060200180831161081057829003601f168201915b50505050509050610376565b6000818310610855576000828152602084905260409020610373565b6000838152602083905260409020610373565b6060610373838360006108b5565b6060600061088383610952565b604080516020808252818301909252919250600091906020820181803683375050509182525060208101929092525090565b6060814710156108da5760405163cd78605960e01b815230600482015260240161065a565b600080856001600160a01b031684866040516108f69190610c65565b60006040518083038185875af1925050503d8060008114610933576040519150601f19603f3d011682016040523d82523d6000602084013e610938565b606091505b509150915061094886838361097a565b9695505050505050565b600060ff8216601f81111561037657604051632cd44ac360e21b815260040160405180910390fd5b60608261098f5761098a826109d6565b6103ff565b81511580156109a657506001600160a01b0384163b155b156109cf57604051639996b31560e01b81526001600160a01b038516600482015260240161065a565b50806103ff565b8051156109e65780518082602001fd5b604051630a12f52160e11b815260040160405180910390fd5b80356001600160a01b0381168114610a1657600080fd5b919050565b803560ff81168114610a1657600080fd5b600080600080600080600060c0888a031215610a4757600080fd5b610a50886109ff565b965060208801359550604088013567ffffffffffffffff80821115610a7457600080fd5b818a0191508a601f830112610a8857600080fd5b813581811115610a9757600080fd5b8b60208260051b8501011115610aac57600080fd5b602083019750809650505050610ac460608901610a1b565b92506080880135915060a0880135905092959891949750929550565b60008060408385031215610af357600080fd5b610afc836109ff565b946020939093013593505050565b60005b83811015610b25578181015183820152602001610b0d565b50506000910152565b60008151808452610b46816020860160208601610b0a565b601f01601f19169290920160200192915050565b60ff60f81b881681526000602060e06020840152610b7b60e084018a610b2e565b8381036040850152610b8d818a610b2e565b606085018990526001600160a01b038816608086015260a0850187905284810360c08601528551808252602080880193509091019060005b81811015610be157835183529284019291840191600101610bc5565b50909c9b505050505050505050505050565b634e487b7160e01b600052603260045260246000fd5b600060208284031215610c1b57600080fd5b815180151581146103ff57600080fd5b600181811c90821680610c3f57607f821691505b602082108103610c5f57634e487b7160e01b600052602260045260246000fd5b50919050565b60008251610c77818460208701610b0a565b919091019291505056fea26469706673582212203eb4568e113c7c8b460d11451067ad21b9bcaeb1b432044e984360374c44c6f764736f6c63430008180033","linkReferences":{}},"methodIdentifiers":{"claim(address,uint256,bytes32[],uint8,bytes32,bytes32)":"4497a169","eip712Domain()":"84b0196e","getAirdropToken()":"548efba2","getMerkleRoot()":"49590657","getMessage(address,uint256)":"570c537e"},"id":36}